:1000000012C02CC02BC02AC029C028C027C026C0BF
:1000100025C051C023C022C021C020C01FC01EC0A7
:100020001DC01CC01BC011241FBECFE5D4E0DEBF25
:10003000CDBF11E0A0E6B0E0E0E3F8E102C005903A
:100040000D92AC37B107D9F713E0ACE7B1E001C0CE
:100050001D92AB3BB107E1F7EFD6E8CBD1CF10BC97
:1000600083E089B986E880BD88E18AB908955F9BFD
:10007000FECF8CB108955D9BFECF8CB90895CF93D0
:10008000DF93EC0101C0F7DF89918823E1F7DF916D
:10009000CF91089587B93E9A3D9886B1876086B919
:1000A000379A369A3699FECF24B135B1932F80E036
:1000B000820F911D08951F920F920FB60F92112477
:1000C0002F933F934F935F936F937F938F939F9360
:1000D000AF93BF93EF93FF9380917C0190917D014B
:1000E000019690937D0180937C018330910598F176
:1000F00080919801813059F560918B0170918C014C
:1001000080E090E030D420E030E040E752E40BD3D0
:1001100023EC35EF4CE151E40AD220E030E04AE72D
:1001200054E401D39B01AC01609182017091830181
:1001300080918401909185019AD1DC01CB0180935B
:10014000820190938301A0938401B0938501109262
:100150007D0110927C01FF91EF91BF91AF919F9132
:100160008F917F916F915F914F913F912F910F9060
:100170000FBE0F901F901895CF92DF92EF92FF92D3
:100180000F931F936B017C0120E030E040E05FE4BF
:1001900070D387FD0FC0C701B60120E030E040E01A
:1001A0005FE493D192D38B019C010050104020401A
:1001B000304805C0C701B60188D38B019C01B80146
:1001C000C9011F910F91FF90EF90DF90CF9008959C
:1001D000A0E0B0E0EDEEF0E0F4C7EC014B01FA0175
:1001E0008881823008F43EC1DB019C91923008F492
:1001F00036C1843059F4943009F034C19981119694
:100200008C911197981709F027C12CC1943009F4EB
:1002100026C19230A9F4823009F024C1CE0128E031
:10022000DC010D90CD01DA010D92AD012150C1F735
:10023000D40111968C91119799818923818311C1E1
:10024000823009F40CC1AA80BB80DB0112964D916B
:100250005C911397CC80DD80EE80FF8014960D9129
:100260001D912D913C911797C501841B950BDC01C5
:1002700097FF04C0AA27BB27A81BB90BA032B10562
:100280000CF067C01816190684F5280139010A2EEA
:1002900004C076946794579447940A94D2F741E047
:1002A00050E060E070E004C0440F551F661F771FE8
:1002B000AA95D2F7415050406040704040235123EE
:1002C0006223732381E090E0A0E0B0E04115510586
:1002D0006105710519F480E090E0DC018C019D015D
:1002E00004291529262937293FC00097E9F1AA0ECC
:1002F000BB1E260137010A2E04C0769467945794DA
:1003000047940A94D2F741E050E060E070E004C006
:10031000440F551F661F771FAA95D2F741505040D2
:10032000604070404C215D216E217F2181E090E092
:10033000A0E0B0E0411551056105710519F480E0B8
:1003400090E0DC016C017D01C428D528E628F7285F
:100350000BC04A155B0524F400E010E0980104C0CE
:100360005A01CC24DD2476018981D40111969C9117
:100370001197891709F445C0882329F00C191D0924
:100380002E093F0908C0D701C601801B910BA20BA3
:10039000B30B8C019D0137FD04C01182B382A28290
:1003A0000BC081E08183B382A282309520951095A5
:1003B00001951F4F2F4F3F4F0483158326833783AB
:1003C0000DC0880F991FAA1FBB1F84839583A68326
:1003D000B7838281938101979383828384819581FE
:1003E000A681B781AC01BD014150504060407040D2
:1003F0004F3F2FEF52072FEF62072FE3720708F3EB
:100400000BC08183B382A2820C0D1D1D2E1D3F1DCA
:10041000048315832683378383E080834481558159
:100420006681778177FF1DC0DB01CA018170907002
:10043000A070B0707695679557954795842B952B4E
:10044000A62BB72B84839583A683B7838281938160
:1004500001969383828305C0C4E7D0E003C0E40122
:1004600001C0EF01CE01CDB7DEB7E0E1C6C6A0E224
:10047000B0E0ECE3F2E0B3C6DC01CB018D839E83F8
:10048000AF83B88729833A834B835C83CE0105967B
:10049000BE01675E7F4F0AD4CE010196BE016F5E3A
:1004A0007F4F04D4CE014996BE016F5E7F4FAE01EF
:1004B000475F5F4F8DDE23D3462F572F682F792F4D
:1004C000CB01BA01A096E2E0A6C6A0E2B0E0EAE65F
:1004D000F2E085C6DC01CB018D839E83AF83B887B4
:1004E00029833A834B835C83CE010596BE01675E08
:1004F0007F4FDCD3CE010196BE016F5E7F4FD6D316
:100500008A8991E089278A8BCE014996BE016F5E68
:100510007F4FAE01475F5F4F5BDEF1D2462F572F13
:10052000682F792FCB01BA01A096E2E074C6A0E251
:10053000B0E0ECE9F2E045C6DC01CB018D839E839F
:10054000AF83B88729833A834B835C83CE010596BA
:10055000BE01675E7F4FAAD3CE010196BE016F5EDA
:100560007F4FA4D3998D923078F089898230C0F082
:10057000943019F4823041F4CAC0843019F49230B6
:1005800079F4C5C0923051F481E02A8D9A892917F7
:1005900009F480E08A8FCE014996BBC0823051F4C5
:1005A00081E02A8D9A89291709F480E08A8BCE018F
:1005B0004196AFC04D8C5E8C6F8C78A00D891E89E2
:1005C0002F89388DE0E2F0E040E050E0BA01882465
:1005D00099245401CC24DD247601C20181709070ED
:1005E0000097D1F0C00ED11EE21EF31EDB01CA013E
:1005F000880D991DAA1DBB1D41E050E060E070E030
:10060000C016D106E206F30618F040E050E0BA0149
:10061000480F591F6A1F7B1F880C991CAA1CBB1C02
:1006200037FF08C081E090E0A0E0B0E0882A992A76
:10063000AA2ABB2A000F111F221F331F769467942A
:1006400057944794319749F68B8D9C8D2B893C8923
:10065000820F931F02969C878B8781E02A8D9A894F
:10066000291709F480E08A872B853C8517C0CA01C9
:1006700081709070009761F0F694E794D794C794D6
:1006800080E090E0A0E0B0E8C82AD92AEA2AFB2A54
:1006900076956795579547952F5F3F4F77FDE7CF45
:1006A000C9010BC0440F551F661F771FF7FC41603F
:1006B000CC0CDD1CEE1CFF1C01974030A0E05A075B
:1006C000A0E06A07A0E47A0768F38B879C87DB01C8
:1006D000CA018F779070A070B07080349105A10529
:1006E000B10561F447FD0AC0C114D104E104F1046D
:1006F00029F0405C5F4F6F4F7F4F40784D875E879A
:100700006F87788B83E08987CE01099602C084E7E2
:1007100090E0F5D1462F572F682F792FCB01BA01E2
:10072000A096E0E16AC5A8E1B0E0E8E9F3E051C5D0
:10073000DC01CB018D839E83AF83B88729833A8305
:100740004B835C83CE010596BE016F5E7F4FAED2B8
:10075000CE010196BE01675F7F4FA8D29989923082
:1007600008F475C08985823008F474C02A893A85F6
:1007700023272A8B943011F0923021F4981709F036
:1007800066C06BC0843039F41D8A1E8A1F8A188E99
:100790001C8A1B8A5CC0823019F484E0898B57C0A4
:1007A0002B893C898B859C85281B390B3C8B2B8B9B
:1007B0008D899E89AF89B88DCD84DE84EF84F888D9
:1007C0008C159D05AE05BF0540F4880F991FAA1F23
:1007D000BB1F215030403C8B2B8BEFE1F0E000E061
:1007E00010E020E030E440E050E0BA018C159D05B7
:1007F000AE05BF0540F0402B512B622B732B8C199B
:100800009D09AE09BF093695279517950795880F5D
:10081000991FAA1FBB1F319749F78A019B010F77C8
:10082000107020703070003411052105310559F425
:1008300047FD09C00097A105B10529F0405C5F4F55
:100840006F4F7F4F40784D8B5E8B6F8B788FCE01D3
:10085000419605C0CE01099602C084E790E04FD1D1
:10086000462F572F682F792FCB01BA016896E8E001
:10087000CCC4A8E1B0E0EEE3F4E0B1C4DC01CB010C
:100880008D839E83AF83B88729833A834B835C83B0
:10089000CE010596BE016F5E7F4F08D2CE01019654
:1008A000BE01675F7F4F02D28989823050F089850F
:1008B000823038F0CE014196BE01675F7F4F5FD234
:1008C00001C08FEF6896E2E0A6C4ACE0B0E0EAE6D3
:1008D000F4E083C4DC01CB0189839A83AB83BC83BE
:1008E000CE010196BE016B5F7F4FE0D18D818230DA
:1008F00069F1823058F1843039F02F81388537FD25
:1009000025C02F31310544F08E81882319F100E094
:1009100010E020E030E822C08EE190E0821B930BD3
:1009200009851A852B853C8504C036952795179532
:1009300007958A95D2F78E81882381F0309520958E
:10094000109501951F4F2F4F3F4F08C000E010E05A
:10095000980104C00FEF1FEF2FEF3FE7B801C90167
:100960002C96E4E056C4A8E0B0E0E8EBF4E031C433
:100970006B017C011A82611571058105910519F4DD
:1009800082E089835DC083E089830EE110E01C83EF
:100990000B83CD82DE82EF82F886C701B6015CD080
:1009A0009C012150304037FF38C0EE27FF27E21B63
:1009B000F30B81E090E0A0E0B0E00E2E04C0880FC1
:1009C000991FAA1FBB1F0A94D2F70197A109B10969
:1009D0008C219D21AE21BF2141E050E060E070E01C
:1009E0000097A105B10519F440E050E0BA0104C038
:1009F000F694E794D794C794EA95D2F7C42AD52AF7
:100A0000E62AF72ACD82DE82EF82F8868EE190E038
:100A1000821B930B9C838B8313C02115310581F0BE
:100A2000022E04C0CC0CDD1CEE1CFF1C0A94D2F775
:100A3000CD82DE82EF82F886021B130B1C830B83B0
:100A4000CE0101965CD0462F572F682F792FCB010E
:100A5000BA012896E8E0D9C3CF92DF92EF92FF92D5
:100A60000F931F938B019C01003080E0180781E0F9
:100A7000280780E0380750F40F3F110521053105A4
:100A800009F088F480E090E0DC0116C00030E0E07E
:100A90001E07E0E02E07E1E03E0750F480E190E021
:100AA000A0E0B0E009C088E090E0A0E0B0E004C0C1
:100AB00088E190E0A0E0B0E040E250E060E070E06B
:100AC000481B590B6A0B7B0B6801790104C0F69433
:100AD000E794D794C7948A95D2F7D701C601845872
:100AE0009F4FFC018081481B510961097109CA01AE
:100AF0001F910F91FF90EF90DF90CF900895CF92CC
:100B0000DF92EF92FF920F931F93DC0114964D91A9
:100B10005D916D917C9117971196EC9111978C9145
:100B2000823020F460618FEF90E0A5C0843009F43A
:100B30009DC0823009F494C04115510561057105CD
:100B400009F491C012968D919C9113972FEF8238E2
:100B500092070CF059C022E83FEF281B390B2A31CD
:100B6000310564F56A017B01022E04C0F694E79416
:100B7000D794C7940A94D2F781E090E0A0E0B0E067
:100B800004C0880F991FAA1FBB1F2A95D2F701978F
:100B9000A109B10984239523A623B72341E050E09E
:100BA00060E070E00097A105B10519F440E050E065
:100BB000BA014C295D296E297F2903C040E050E02D
:100BC000BA01DB01CA018F779070A070B0708034D9
:100BD0009105A105B10539F447FF09C0405C5F4F9D
:100BE0006F4F7F4F04C0415C5F4F6F4F7F4F81E07D
:100BF00090E0403020E0520720E0620720E47207D6
:100C000038F580E090E024C0803891057CF58A01B9
:100C10009B010F7710702070307000341105210592
:100C2000310539F447FF09C0405C5F4F6F4F7F4F7C
:100C300004C0415C5F4F6F4F7F4F77FD03C0815809
:100C40009F4F06C0769567955795479580589F4F5B
:100C500097E076956795579547959A95D1F70BC08C
:100C600080E090E005C080E090E005C08FEF90E06C
:100C700040E050E0BA01982F979599279795A62FB5
:100C8000AF77E795EE27E79586953A2F392B282FF2
:100C90002E2B842F952FA32FB22FBC01CD011F9196
:100CA0000F91FF90EF90DF90CF900895DC01FB0152
:100CB0004C9111965C91119712968C911297682F16
:100CC0006F7770E0982F991F9927991F13962C9191
:100CD0001397822F880F892B90E0221F2227221F33
:100CE0002183009739F5411551056105710511F40E
:100CF00082E029C082E89FEF9383828327E0440F3C
:100D0000551F661F771F2A95D1F783E0808309C09E
:100D1000440F551F661F771F82819381019793832C
:100D20008283403080E0580780E0680780E47807DD
:100D300078F320C08F3F910579F441155105610585
:100D4000710519F484E08083089564FF03C081E095
:100D5000808310C010820EC08F579040938382838F
:100D600083E0808387E0440F551F661F771F8A95B5
:100D7000D1F7706444835583668377830895CF9356
:100D8000FC01DB019081923008F44CC08C918230E0
:100D900008F448C0943069F42181843039F4119604
:100DA0008C91119790E0821B910944C02223D1F1CC
:100DB0003FC0843021F0923041F48230B1F111967D
:100DC0008C9111978823A1F12DC0C181823001F14E
:100DD00011968C911197C817D9F48281938112963C
:100DE0002D913C9113972817390794F08217930798
:100DF000BCF0448155816681778114968D919D91D7
:100E00000D90BC91A02D84179507A607B70718F47D
:100E1000CC2341F00DC0481759076A077B0728F417
:100E2000CC2331F081E090E005C080E090E002C08A
:100E30008FEF9FEFCF9108958B9A14BA83E083BF11
:100E400081E089BF78940BD920E030E080E090E029
:100E5000FC01E554FE4F118210822F5F3F4F029636
:100E60002F3F3105A9F3A0F310929A011092990136
:100E70003BE9632E31E0732E40E6442E40E0542ED1
:100E80000F2EF0E08F2EF0E09F2EF0E0AF2EF0E07E
:100E9000BF2EF02D80E0FED8845F914097FF03C005
:100EA000909581959F4F9093900180938F0181E061
:100EB000F1D8845F914097FF03C0909581959F4F33
:100EC00090938E0180938D01209195013091960130
:100ED0002115310509F052C020918F013091900108
:100EE0002B3F310520F48B3F910508F44BC08091D6
:100EF0008A018F5F80938A018630A4F084E0939A00
:100F0000AFEFBFE81197F1F700C00000939826E615
:100F100036EE40E0215030404040E1F7815079F713
:100F200010928A014DB75EB7485050400FB6F89402
:100F30005EBF0FBE4DBFEDB7FEB73196ADB7BEB7C2
:100F400012967C926E921197538242828091800118
:100F5000909181019583848380917E0190917F019E
:100F60009783868363D1EDB7FEB738960FB6F894B2
:100F7000FEBF0FBEEDBF8BE991E081D81AE0C0E063
:100F8000D0E003C010928A01F9CF82E083D8845F59
:100F9000914097FF03C0909581959F4FC80FD91F2F
:100FA000115099F7BE0180E090E0DDDC20E030E0F8
:100FB00040E251E4B8DB59D1DFD8AB01BC0150931A
:100FC0008C0140938B012091950130919601211560
:100FD000310509F46FC080919301909194010197BC
:100FE0009093940180939301009709F053CF939AC3
:100FF0002FEF3FE342E0215030404040E1F700C096
:101000000000939810929801109297011092960107
:1010100010929501109294011092930110929201F6
:101020001092910180E090E020E030E0FC01E55476
:10103000FE4F118210822F5F3F4F02962F3F3105E6
:10104000A9F3A0F310929A0110929901C090820125
:10105000D0908301E0908401F0908501C701B60132
:1010600023EC35EF4CE151E45EDB20E030E04AE771
:1010700054E45DDAFAD029DCDC01CB0190937F01E6
:1010800080937E01C701B60120E030E04AE754E4D6
:101090004EDAEBD01ADCDC01CB0190938101809316
:1010A00080018092820190928301A0928401B0928B
:1010B0008501F0CE4536510560F0809197018F5F34
:1010C0008093970186300CF45BC081E08093980197
:1010D00057C080919801813009F042C080919901F8
:1010E00090919A0183339105D8F1019790939A01D9
:1010F000809399016091910170919201EBEBF1E085
:1011000040E050E021913191620F731F4F5F5F4FBC
:1011100048175907B8F380E090E025DC20E030E084
:1011200040E752E400DBA1D0D0DBDC01CB0190939F
:10113000920180939101BC0180E090E014DC20E0FA
:1011400030E040E250E4EFDA90D0BFDBDC01CB01CD
:1011500090939601809395019093940180939301CD
:101160008091970118164CF01092970110929801F7
:1011700010929A011092990103C0815080939701B7
:1011800080919801813009F085CE809199019091EC
:101190009A018F3F910511F008F07CCEFC01EE0F13
:1011A000FF1FE554FE4F20918B0130918C0131835C
:1011B0002083019690939A01809399016BCE2F9290
:1011C0003F924F925F926F927F928F929F92AF92D7
:1011D000BF92CF92DF92EF92FF920F931F93CF9324
:1011E000DF93CDB7DEB7CA1BDB0B0FB6F894DEBFBB
:1011F0000FBECDBF09942A88398848885F846E84E1
:101200007D848C849B84AA84B984C884DF80EE802A
:10121000FD800C811B81AA81B981CE0FD11D0FB633
:10122000F894DEBF0FBECDBFED010895AEE0B0E093
:10123000EBE1F9E0D2CF0D891E8986E08C831A8319
:1012400009838FEF9FE79E838D83AE01475E5F4FDB
:10125000CE0101966F89788D28D0EF81F885E00F57
:10126000F11F10822E96E4E0D4CFBFD2E0F09E377B
:10127000D8F09639B8F49E3848F4672F782F88272D
:10128000985FF9CF86957795679593959539D0F3C3
:10129000B62FB1706B0F711D811D20F48795779566
:1012A0006795939571C28BC2BBC2ADE0B0E0EAE531
:1012B000F9E085CF3C017D876C875A01FC011782DC
:1012C0001682838181FFBBC12E010894411C511CF1
:1012D000F3019381EC85FD8593FD859193FF8191C9
:1012E000FD87EC87882309F4A6C1853241F493FD7C
:1012F000859193FF8191FD87EC87853221F490E001
:10130000B301B8D1E5CFFF24EE2410E01032B0F4E1
:101310008B3269F08C3228F4803251F0833271F4D0
:101320000BC08D3239F0803349F411602CC012604B
:10133000146029C0186027C0106125C017FD2EC099
:10134000282F20532A3098F416FF08C08F2D880FBD
:10135000F82EFF0CFF0CF80EF20E15C08E2D880F24
:10136000E82EEE0CEE0CE80EE20E10620CC08E328F
:1013700021F416FD60C1106406C08C3611F41068AB
:1013800002C0883659F4EC85FD8593FD859193FF65
:101390008191FD87EC87882309F0B8CF982F955469
:1013A000933018F09052933038F424E030E0A20EDD
:1013B000B31E3FE339830FC0833631F0833781F0AA
:1013C000833509F056C021C0F5018081898322E070
:1013D00030E0A20EB31E21E0C22ED12C420113C078
:1013E00092E0292E312C2A0C3B1CF5018080918043
:1013F00016FF03C06F2D70E002C06FEF7FEFC401D6
:101400002ED16C0151011F7714C082E0282E312C9F
:101410002A0C3B1CF5018080918016FF03C06F2DC4
:1014200070E002C06FEF7FEFC4010ED16C01106855
:10143000510113FD1AC005C080E290E0B3011AD13A
:10144000EA948E2D90E0C816D906B0F30EC0F401D0
:1014500017FD859117FF81914F0190E0B3010AD1EB
:10146000E110EA940894C108D108C114D10479F7B5
:10147000DFC0843611F0893649F5F50117FF07C042
:1014800080819181A281B38124E030E008C0808115
:101490009181AA2797FDA095BA2F22E030E0A20EF5
:1014A000B31E012F0F76B7FF08C0B095A095909599
:1014B00081959F4FAF4FBF4F0068BC01CD01A20186
:1014C0002AE030E003D1D82ED4183EC0853721F46D
:1014D0001F7E2AE030E020C0197F8F36A9F08037C8
:1014E00020F4883509F0A7C00BC0803721F0883779
:1014F00009F0A1C001C0106114FF09C0146007C049
:1015000014FF08C0166006C028E030E005C020E1E6
:1015100030E002C020E132E0F50117FF07C0608132
:1015200071818281938144E050E006C060817181C5
:1015300080E090E042E050E0A40EB51EA201C6D0CB
:10154000D82ED418012F0F7706FF09C00E7FDF14A5
:1015500030F404FF06C002FD04C00F7E02C01D2D42
:1015600001C01F2D802F90E004FF0CC0FE01ED0D87
:10157000F11D2081203311F4097E09C002FF06C04D
:101580001E5F05C086789070009709F01F5F802E5F
:10159000992403FD11C000FF0CC0FD2C1E1548F45A
:1015A000FE0CF11A1E2D05C080E290E0B30162D05E
:1015B0001F5F1E15C8F304C01E1510F4E11A01C008
:1015C000EE2484FE0EC080E390E0B30153D082FE8F
:1015D0001DC081FE03C088E590E010C088E790E060
:1015E0000DC0C40186789070009781F081FC02C024
:1015F00080E201C08BE207FD8DE290E0B3013AD0BA
:1016000005C080E390E0B30135D0FA94DF14C8F34D
:10161000DA94F201ED0DF11D808190E0B3012AD042
:10162000DD20B1F705C080E290E0B30123D0EA9459
:10163000EE20C9F74DCEF3018681978102C08FEF6E
:101640009FEF2D96E2E1D7CDFC01059061507040EF
:101650000110D8F7809590958E0F9F1F0895FC017B
:101660006150704001900110D8F7809590958E0FD1
:101670009F1F08950F931F93CF93DF938C01EB016E
:101680008B8181FF1BC082FF0DC02E813F818C8129
:101690009D812817390764F4E881F9810193F98362
:1016A000E88306C0E885F985802F0995009731F415
:1016B0008E819F8101969F838E8302C00FEF1FEF63
:1016C000C801DF91CF911F910F910895FA01AA27C8
:1016D000283051F1203181F1E8946F936E7F6E5F75
:1016E0007F4F8F4F9F4FAF4FB1E03ED0B4E03CD023
:1016F000670F781F891F9A1FA11D680F791F8A1F06
:10170000911DA11D6A0F711D811D911DA11D20D06C
:1017100009F468943F912AE0269F11243019305D26
:101720003193DEF6CF010895462F4770405D419317
:10173000B3E00FD0C9F7F6CF462F4F70405D4A3364
:1017400018F0495D31FD4052419302D0A9F7EACF2C
:10175000B4E0A6959795879577956795BA95C9F75B
:1017600000976105710508959B01AC010A2E06944E
:101770005795479537952795BA95C9F7620F731F07
:10178000841F951FA01D0895882371F4772321F0ED
:101790009850872B762F07C0662311F499270DC028
:1017A0009051862B70E060E02AF09A95660F771FC3
:1017B000881FDAF7880F9695879597F908959F3FC8
:1017C00031F0915020F4879577956795B795880FFC
:1017D000911D9695879597F9089557FD9058440F58
:1017E000551F59F05F3F71F04795880F97FB991F80
:1017F00061F09F3F79F0879508951216130614063D
:10180000551FF2CF4695F1DF08C0161617061806C9
:10181000991FF1CF86957105610508940895E894A4
:10182000BB2766277727CB0197F90895F894FFCF58
:10183000566F3D2575206D6D2F732C20743D2575D9
:101840006D730A00000000000000000000010202A9
:101850000303030304040404040404040505050548
:101860000505050505050505050505050606060624
:101870000606060606060606060606060606060608
:1018800006060606060606060606060607070707F4
:1018900007070707070707070707070707070707D8
:1018A00007070707070707070707070707070707C8
:1018B00007070707070707070707070707070707B8
:1018C00007070707070707070707070708080808A4
:1018D0000808080808080808080808080808080888
:1018E0000808080808080808080808080808080878
:1018F0000808080808080808080808080808080868
:101900000808080808080808080808080808080857
:101910000808080808080808080808080808080847
:101920000808080808080808080808080808080837
:101930000808080808080808080808080808080827
:0C1940000808080808080808080808083B
:00000001FF
