:1000000012C08BC02BC02AC029C028C027C026C060
:1000100025C048C023C022C021C020C01FC01EC0B0
:100020001DC01CC01BC011241FBECFE5D4E0DEBF25
:10003000CDBF10E0A0E6B0E0E0E9F4E002C005903A
:100040000D92A637B107D9F710E0A6E7B0E001C0DE
:100050001D92A339B107E1F729D118C2D1CF81E0B0
:1000600089BF12BE85E083BF089510BC8CE089B9BA
:100070008AB188618AB980B5866880BD08955F9B22
:10008000FECF8CB108955D9BFECF8CB90895CF93C0
:10009000DF93EC0101C0F7DF89918823E1F7DF915D
:1000A000CF9108951F920F920FB60F9211248F9344
:1000B0009F93AF93BF938091850090918600A0910C
:1000C0008700B09188008093810090938200A09374
:1000D0008300B093840010928500109286001092E5
:1000E000870010928800109280008091810090918A
:1000F0008200A0918300B09184000097A105B10512
:1001000009F413BE86E982BFBF91AF919F918F9191
:100110000F900FBE0F901F9018951F920F920FB661
:100120000F9211242F933F934F935F936F937F937D
:100130008F939F93AF93BF93EF93FF938091800032
:10014000882351F122B78091850090918600A0917B
:100150008700B0918800880F991FAA1FBB1F80934A
:10016000850090938600A0938700B093880026595D
:100170002A30B0F08091850090918600A091870090
:10018000B091880081608093850090938600A09351
:100190008700B093880004C081E0809380005FDF17
:1001A00086E982BFFF91EF91BF91AF919F918F91AF
:1001B0007F916F915F914F913F912F910F900FBE63
:1001C0000F901F90189580917E0090917F0000976E
:1001D000B9F08AB59BB5893C910538F08AB59BB5D5
:1001E000845690409BBD8ABD089510927F00109266
:1001F0007E0081E090E090937D0080937C000895E4
:1002000081E090E090937D0080937C008AB59BB55F
:1002100025E08C3D920740F48AB59BB58C599F4FE1
:100220009BBD8ABDA89AA998089580917C00909161
:100230007D000097B9F08AB59BB5893C910538F0EF
:100240008AB59BB5845690409BBD8ABD0895109297
:100250007D0010927C0081E090E090937F0080937D
:100260007E00089581E090E090937F0080937E006F
:100270008AB59BB525E08C3D920740F48AB59BB5C5
:100280008C599F4F9BBD8ABDA898A99A089510923A
:100290007D0010927C0010927F0010927E00A89842
:1002A000A99888EC90E09BBD8ABD08950F931F9399
:1002B000CF93DF9387B3836087BB84B3836084BBB2
:1002C0008A988BB780648BBF85B7816085BFC7DE96
:1002D0007894CBDE1FBC84EF91E097BD86BD82E0B1
:1002E0008FBD89E18EBDB99A8FB580688FBD88ECCE
:1002F00090E09BBD8ABD9BBD8ABDC2E0D0E001E01D
:1003000010E08091810090918200A0918300B091D3
:1003100084000097A105B105A1F3209181003091DF
:1003200082004091830050918400809176009091EA
:100330007700A0917800B0917900281739074A0713
:100340005B0709F48BC08091810090918200A0919D
:100350008300B09184008A3020EA920720EAA20745
:100360002AE0B207D9F18B3020EA920720EAA207EF
:100370002AE0B20798F4823A28EA920728E0A20716
:1003800022E0B20709F449C0823228EA920728E83D
:10039000A20722E0B20709F061C050C08A3028E00D
:1003A000920720EAA20722EAB20751F0823A22E03D
:1003B000920728E0A20728EAB20709F04FC01CC044
:1003C00089E890E060E670E05AD089E890E05FDE6E
:1003D000C09A10937B0000937A0040C089E890E0B7
:1003E00064E670E04CD089E890E051DEC098D0938C
:1003F0007B00C0937A0032C089E890E068E670E044
:100400003ED089E890E043DE80917A0090917B00B5
:100410008130910519F5D7DE21C089E890E06DE6BD
:1004200070E02DD089E890E032DE80917A009091E2
:100430007B008130910591F4F8DE10C089E890E0EE
:1004400062E770E01CD089E890E021DE80917A00BC
:1004500090917B008130910509F419DF8091810032
:1004600090918200A0918300B091840080937600E7
:1004700090937700A0937800B093790042CFFB016E
:10048000DC0101900D920020E1F70895F894FFCF70
:1004900023310A0023320A00E286910A00E28693A1
:0604A0000A00530A0000EF
:00000001FF
