:1000000012C02CC02BC02AC029C028C027C026C0BF
:1000100025C024C023C022C021C020C01FC01EC0D4
:100020001DC01CC01BC011241FBECFE5D4E0DEBF25
:10003000CDBF11E0A0E6B0E0E8EBF5E002C005902E
:100040000D92A43AB107D9F712E0A4EAB1E001C0D9
:100050001D92A43AB107E1F731D0ACC2D1CF10BCA8
:100060008CE089B98AB188618AB980B5866880BD1B
:1000700008955F9BFECF8CB108955D9BFECF8CB938
:100080000895CF93DF93EC0101C0F7DF89918823B6
:10009000E1F7DF91CF91089587B93E9A3D9886B1F7
:1000A000876086B9379A369A3699FECF84B195B172
:1000B000392F20E0280F311DC90108954F925F921A
:1000C0006F927F928F929F92AF92BF92CF92DF9268
:1000D000EF92FF920F931F93CF93DF9384B38F61BF
:1000E00084BB7894BCDF84EC91E060E670E0C8D11A
:1000F00084EC91E0C6DFAB9AAC98AA9AA99AACE8D6
:10010000B2E0BD0168517040AD014053504024E45D
:1001100032E08CE292E014E1E12E12E0F12EE4EE06
:10012000F1E010E001E01082108EE70119927E01EB
:10013000EC010993CE01E90109939E01EA011992AC
:10014000AE01EB011992BE011D921F5F319618316D
:1001500051F710E0C0E0D0E0F2E08F2E912C01E0EA
:1001600086E09ADF2196CB30D10508F4C7C079D15B
:10017000B40112D1B82EACE8B2E0AD014851504004
:100180009D0120533040E4E44E2EE2E05E2E7CE2FE
:10019000E72E72E0F72E64E1C62E62E0D62EE4EE82
:1001A000F1E080E090E0123091F1133034F411234B
:1001B00059F0113009F07FC012C0133009F443C068
:1001C000143009F078C056C01082108EE6011882F3
:1001D000E7010883E2010883E901188214C0108254
:1001E000108EBC0169597F4FEB01A880E601A882FF
:1001F000BC0161587F4FEB016881E7016883E20130
:100200006883E901A882EA0118821C9254C0108216
:10021000BC0169567F4FEB01A880A08EBC016155DF
:100220007F4FEB017880E6017882BC0169537F4FF4
:10023000EB016881E7016883E2016883E901788264
:10024000EA01A882E2CFBC0161527F4FEB01A88096
:10025000A082BC0169507F4FEB017880708EBC0199
:10026000615F7E4FEB016880E6016882BC01695DD9
:100270007E4F16C0BC01615C7E4FEB01A880A0825E
:10028000BC01695A7E4FEB017880708EBC016159C8
:100290007E4FEB016880E6016882BC0169577E4FA2
:1002A000EB016881E7016883E2016883E901688204
:1002B000EA017882AC92019631960894C11CD11C57
:1002C0000894E11CF11C0894411C511C2F5F3F4F06
:1002D0004F5F5F4F11968831910509F064CFEB2D88
:1002E000E13021F41F5F153039F403C0115020F4C0
:1002F00002C014E001C010E0C0E0D0E024EA31E028
:1003000080E090E027C041914D9341E0A43CB407C8
:10031000D1F7AA984E91413011F4A89801C0A89A3B
:10032000A998A99AE1E0AC3ABE07A1F7ECEAF1E09E
:100330004291413011F4A89A01C0A898A998A99AAD
:1003400041E0E43AF407A1F7AA9A019688309105B2
:1003500009F406CF1092A4011092A5011092A601F3
:100360001092A7011092A8011092A9011092AA015F
:100370001092AB01F90101939F01FC01EE0FFF1FE9
:10038000E80FF91F43E0EE0FFF1F4A95E1F7EC512C
:10039000FE4FACEAB1E0B7CF97FB092E07260AD093
:1003A00077FD04D00CD006D000201AF4709561952A
:1003B0007F4F0895F6F7909581959F4F0895AA1B5A
:1003C000BB1B51E107C0AA1FBB1FA617B70710F040
:1003D000A61BB70B881F991F5A95A9F78095909572
:1003E000BC01CD010895A0E0B0E0E8EFF1E091C0DC
:1003F000EC01688179818A819B8161157105810594
:10040000910521F464E279ED8BE597E02DE133EF7E
:1004100041E050E05BD079018A0127EA31E440E015
:1004200050E035D05B016C01C801B7012CEE34EF10
:100430004FEF5FEF2CD06A0D7B1D8C1D9D1D97FF2C
:1004400004C06150704080409048688379838A83FB
:100450009B837F77CB01CDB7DEB7EAE076C0C3DF01
:1004600008958FE991E0BFDF0895A0E0B0E08093A8
:100470009F019093A001A093A101B093A2010895C0
:10048000FB01DC0101900D920020E1F70895629FCD
:10049000D001739FF001829FE00DF11D649FE00D7C
:1004A000F11D929FF00D839FF00D749FF00D659FDD
:1004B000F00D9927729FB00DE11DF91F639FB00DDC
:1004C000E11DF91FBD01CF011124089597FB092EED
:1004D00005260ED057FD04D04BD00AD0001C38F4AE
:1004E00050954095309521953F4F4F4F5F4F089560
:1004F000F6F790958095709561957F4F8F4F9F4F40
:1005000008952F923F924F925F926F927F928F92B7
:100510009F92AF92BF92CF92DF92EF92FF920F9392
:100520001F93CF93DF93CDB7DEB7CA1BDB0B0FB69C
:10053000F894DEBF0FBECDBF09942A883988488859
:100540005F846E847D848C849B84AA84B984C884EF
:10055000DF80EE80FD800C811B81AA81B981CE0FE6
:10056000D11D0FB6F894DEBF0FBECDBFED010895CB
:10057000A1E21A2EAA1BBB1BFD010DC0AA1FBB1FA7
:10058000EE1FFF1FA217B307E407F50720F0A21B19
:10059000B30BE40BF50B661F771F881F991F1A9486
:1005A00069F760957095809590959B01AC01BD01B0
:0805B000CF010895F894FFCF7C
:1005B80053544152540A0000000000010101010196
:1005C8000101010101010101010101000000000117
:1005D8000101010000000000000000000000000010
:1005E80000000001010101000000000001010101FB
:1005F80001010101010101010101000000000000E9
:1006080000000001000000000000000000000000E1
:1006180000000100000000010101010000000000CD
:1006280000000000000000000000000101010100BE
:1006380000000000000101010101010101010101A7
:1006480001000000000000000000000001000000A0
:100658000000000000000000000100000000000091
:100668000000000100000000000000000000000081
:10067800000001000000000101010100000000006D
:10068800000000000000000000000001010101005E
:100698000000000101010101010101010101010145
:1006A800010101000000000000000100000000003E
:1006B8000000000000000000000000010000000031
:1006C8000001000000000000000000000000000021
:1006D800000000000100000101000000000000000F
:1006E80000000000000000000000000000010101FF
:0406F80000000000FE
:00000001FF
