:1000000012C02CC02BC02AC029C028C027C026C0BF
:1000100025C024C023C022C021C020C01FC01EC0D4
:100020001DC01CC01BC011241FBECFE5D4E0DEBF25
:10003000CDBF10E0A0E6B0E0EEECF0E002C005902D
:100040000D92A836B107D9F720E0A8E6B0E001C0CC
:100050001D92A838B207E1F71FD037C0D1CF10BC2E
:100060008CE089B98AB188618AB980B5866880BD1B
:1000700008955F9BFECF8CB108955D9BFECF8CB938
:100080000895CF93DF93EC018991882311F0F5DF78
:10009000FBCFDF91CF91089587B3836087BB84B393
:1000A000836084BB8A987894DADF60E670E088E643
:1000B00090E004D088E690E0E4DFFFCFFB01DC01B4
:0E00C00001900D920020E1F70895F894FFCF13
:0800CE0053544152540A000092
:00000001FF
