:1000000012C02CC02BC02AC029C028C027C026C0BF
:1000100025C024C023C022C021C020C01FC01EC0D4
:100020001DC01CC01BC011241FBECFE5D4E0DEBF25
:10003000CDBF11E0A0E6B0E0EAE9F8E002C005902B
:100040000D92A43AB107D9F722E0A4EAB1E001C0C9
:100050001D92A43AB207E1F731D01DC4D1CF10BC34
:100060008CE089B98AB188618AB980B5866880BD1B
:1000700008955F9BFECF8CB108955D9BFECF8CB938
:100080000895CF93DF93EC018991882311F0F5DF78
:10009000FBCFDF91CF91089587B93E9A3D9886B105
:1000A000876086B9379A369A3699FECF24B185B1E2
:1000B00090E0982F8827820F911D089584B38F6157
:1000C00084BB7894CCDF6CE971E084EC91E082D35E
:1000D00084EC91E0D6DFAB9AAC98AA9AA99ACCE8C6
:1000E000CC2EC2E0DC2EA4E7B2E0CCE5D2E084E482
:1000F00092E02CE232E044E152E06CEF71E004EE79
:1001000011E0E8E1FE2EEE24E394F80111928F0154
:10011000FB011192BF01FA011192AF01F901E192C5
:100120009F01FC01E192CF0119921D92F6011192FB
:100130006F01FA9451F7B12CC0E0D0E0E12CF12C22
:1001400086E0AADF8831910510F0E80EF91E2196AD
:10015000CB30D10508F40BC1B70180E090E00AD2A2
:100160006B017C01BE0180E090E004D29B01AC01F8
:10017000C701B6016BD18CD2D1D16831710508F4B9
:10018000C6C019D362E070E03AD1982EA4EEEA2EF0
:10019000A1E0FA2EBCE84B2EB2E05B2EA4E7B2E061
:1001A000CCE5D2E024E432E04CE252E064E172E0DB
:1001B0000CEF11E080E090E0AA24A394F2E0BF16D7
:1001C00009F448C0FB15D4F0BB20A9F1DD24D39479
:1001D000BD1077C0F7011082F8011082FC01E058D1
:1001E000FE4F8080FB018082FC01E859FE4FD080E9
:1001F000FA01D082F901D082888228C0E3E0BE16DD
:1002000009F441C0F4E0BF125CC0FC01E855FF4FA7
:100210008080F7018082FC01E057FF4F7080F80179
:100220007082FC01E858FF4F6080FB016082FC0196
:10023000E05AFF4F3DC0F7011082F8011082FB0128
:100240001082FA01A082F901A08218821C92F201A8
:10025000108237C0F7011082FC01E05BFE4F808006
:10026000F8018082FC01E85CFE4F7080FB01708227
:10027000FC01E05EFE4FD080FA01D082F901D0820D
:1002800078828C92E4CFFC01E85FFE4F8080F7011A
:100290008082FC01E051FF4F7080F8017082FC0108
:1002A000E852FF4F6080FB016082FC01E054FF4F89
:1002B000D080FA01D082F901D08268827C92F2016A
:1002C00080820196FFEFEF1AFF0A0F5F1F4F6F5FEB
:1002D0007F4F4F5F5F4F2F5F3F4F21961196EFEF9C
:1002E0004E1A5E0A8831910509F068CFF1E09F123D
:1002F00008C0B394F5E0DF2EBD1035C044E0B42E45
:1003000032C0BA942FEFB2122EC0B12C2CC05CE8D0
:10031000C52E52E0D52EA4E7B2E0CCE5D2E084E4CD
:1003200092E02CE232E044E152E06CEF71E004EE46
:1003300011E0E8E1FE2EEE24E394F80111928F0122
:10034000FB011192BF01FA011192AF01F901E19293
:100350009F01FC01E192CF0119921D92F6011192C9
:100360006F01FA9451F7C0E0D0E0E12CF12C84EE5B
:1003700091E0A4EAB1E011E0E4EAF1E0119221E0B9
:10038000EC3AF207D9F71D936CEA71E020E030E017
:10039000AC01420F531FFA014081FB014193BF01A1
:1003A0002F5F3F4F2831310599F7AA98E4ECF1E02F
:1003B0002291213011F4A89801C0A89AA998A99A6D
:1003C00021E0EC3AF207A1F7ECEAF1E022912130CA
:1003D00011F4A89A01C0A898A998A99A21E0E43A32
:1003E000F207A1F7AA9A4896E2E0843A9E0721F61E
:1003F0008FEC97E00197F1F700C00000A1CE97FBCA
:10040000072E16F4009406D077FD08D00BD007FC19
:1004100005D03EF4909581959F4F08957095619514
:100420007F4F0895AA1BBB1B51E107C0AA1FBB1F2A
:10043000A617B70710F0A61BB70B881F991F5A9570
:10044000A9F780959095BC01CD0108950CD0E6C028
:10045000DED040F0D5D030F021F45F3F19F0C7C0B6
:10046000511110C1CAC0EBD098F39923C9F3552399
:10047000B1F3951B550BBB27AA2762177307840797
:1004800038F09F5F5F4F220F331F441FAA1FA9F34D
:1004900033D00E2E3AF0E0E830D091505040E6953F
:1004A000001CCAF729D0FE2F27D0660F771F881FA0
:1004B000BB1F261737074807AB07B0E809F0BB0B8F
:1004C000802DBF01FF2793585F4F2AF09E3F5105B3
:1004D00068F08DC0D7C05F3FECF3983EDCF38695A3
:1004E00077956795B795F7959F5FC9F7880F911D29
:1004F0009695879597F90895E1E0660F771F881F15
:10050000BB1F621773078407BA0720F0621B730BC7
:10051000840BBA0BEE1F88F7E095089598D088F009
:100520009F5790F0B92F9927B751A0F0D1F0660FDF
:10053000771F881F991F1AF0BA95C9F712C0B130FA
:1005400081F09FD0B1E008959CC0672F782F882755
:10055000B85F39F0B93FCCF3869577956795B39539
:10056000D9F73EF490958095709561957F4F8F4FA8
:100570009F4F0895E89409C097FB3EF490958095AD
:10058000709561957F4F8F4F9F4F9923A9F0F92F59
:1005900096E9BB279395F695879577956795B795D7
:1005A000F111F8CFFAF4BB0F11F460FF1BC06F5FBD
:1005B0007F4F8F4F9F4F16C0882311F096E911C0CF
:1005C000772321F09EE8872F762F05C0662371F0F0
:1005D00096E8862F70E060E02AF09A95660F771F04
:1005E000881FDAF7880F9695879597F9089597F9F8
:1005F0009F6780E870E060E008959FEF80EC0895C9
:1006000000240A94161617061806090608950024F1
:100610000A9412161306140605060895092E03946B
:10062000000C11F4882352F0BB0F40F4BF2B11F4DF
:1006300060FF04C06F5F7F4F8F4F9F4F089557FD3E
:100640009058440F551F59F05F3F71F04795880F40
:1006500097FB991F61F09F3F79F0879508951216D7
:1006600013061406551FF2CF4695F1DF08C0161683
:1006700017061806991FF1CF869571056105089434
:100680000895E894BB2766277727CB0197F908954B
:10069000DEDFE0F09E37D8F09639B8F49E3848F4A3
:1006A000672F782F8827985FF9CF8695779567957C
:1006B00093959539D0F3B62FB1706B0F711D811DD5
:1006C00020F4879577956795939502C01CC0DACF83
:1006D000882371F4772321F09850872B762F07C059
:1006E000662311F499270DC09051862B70E060E0CD
:1006F0002AF09A95660F771F881FDAF7880F96956C
:10070000879597F908959F3F31F0915020F4879590
:1007100077956795B795880F911D9695879597F969
:1007200008958F929F92AF92BF92CF92DF92EF92F5
:10073000FF92CF93DF93EC01688179818A819B815D
:10074000611571058105910521F464E279ED8BE570
:1007500097E02DE133EF41E050E043D049015A01E9
:100760009B01AC01A7EAB1E458D06B017C01ACEE6F
:10077000B4EFA50194015DD0C60ED71EE81EF91E88
:10078000F7FE06C081E0C81AD108E10880E8F80A3F
:10079000C882D982EA82FB82C6019F77DF91CF911E
:1007A000FF90EF90DF90CF90BF90AF909F908F9091
:1007B0000895B7DF089588E991E0B3DF0895A0E0D8
:1007C000B0E08093980190939901A0939A01B0931F
:1007D0009B010895FB01DC0101900D920020E1F7DF
:1007E0000895052E97FB16F400940FD057FD05D001
:1007F00024D007FC02D046F408C0509540953095AF
:1008000021953F4F4F4F5F4F08959095809570957C
:1008100061957F4F8F4F9F4F089531D0A59F900DC9
:10082000B49F900DA49F800D911D11240895B7FFD2
:10083000F4CFF3DF821B930B0895A1E21A2EAA1BBB
:10084000BB1BFD010DC0AA1FBB1FEE1FFF1FA21780
:10085000B307E407F50720F0A21BB30BE40BF50B7D
:10086000661F771F881F991F1A9469F76095709506
:10087000809590959B01AC01BD01CF010895A29F89
:10088000B001B39FC001A39F01D0B29F700D811D25
:0A0890001124911D0895F894FFCF84
:10089A00010100000000000000000000000000004C
:1008AA00000000000000010100000100000000003B
:1008BA00000000000000000000000000000100002D
:1008CA00000000010000000000000000000000001D
:1008DA000000000001000000000000000101010109
:1008EA0001010101010101010101010100000000F2
:1008FA0001010101000000000000000000000000EA
:10090A0000000000010101010000000001000000D8
:10091A0000000000000000000000000100000000CC
:10092A0000000000000100000000000000000000BC
:10093A0000000100000000000000000000000101AA
:10094A000101010101010101010100000000000093
:10095A000101010100000000000000000000000089
:10096A000000000001010101000000000100000078
:10097A00000000000000000000000001000000006C
:10098A000000000000010101010101010101010152
:10099A000101010000000000010101010000000046
:1009AA000000000000000000000000000101010139
:1009BA000000000001010101010101010101010121
:1009CA0001010101000000000100000053544152DE
:0409DA00540A0000BB
:00000001FF
