:1000000012C02CC02BC02AC029C028C027C026C0BF
:1000100025C024C023C022C021C020C01FC01EC0D4
:100020001DC01CC01BC011241FBECFE5D4E0DEBF25
:10003000CDBF13E0A0E6B0E0E4E7F1E002C0059038
:100040000D92A836B107D9F723E0A8E6B3E001C0C6
:100050001D92A83AB207E1F71FD08AC0D1CF10BCD9
:100060008CE089B98AB188618AB980B5866880BD1B
:1000700008955F9BFECF8CB108955D9BFECF8CB938
:100080000895CF93DF93EC018991882311F0F5DF78
:10009000FBCFDF91CF91089584B38F6184BB7894B7
:1000A000DEDF60E673E088E893E05BD088E893E009
:1000B000E8DFAB9AAC98AA9AA99A50E040E061E0D8
:1000C0004F3F09F447E0E8E6F3E0119223E0E03720
:1000D000F207D9F7E42FFF27E7FDF095E859FC4F29
:1000E00060834150E0E7F3E088E158029001112479
:1000F000205A3F4F80E090E0D901A80FB91F7C91B2
:100100007193019687319105B9F75F5F583009F413
:1001100050E0AA98E8E8F3E08291813011F4A898C1
:1001200001C0A89AA998A99A93E0E137F907A1F725
:10013000E8E6F3E08191813011F4A89A01C0A89813
:10014000A998A99A23E0E137F207A1F7AA9A8FEFBD
:1001500090E722E0815090402040E1F700C000008D
:10016000AFCFFB01DC0101900D920020E1F7089573
:04017000F894FFCF31
:10017400010000000000000000000000000000007A
:10018400000000000000000000010000000000006A
:10019400000000000000000000000000000000005B
:1001A400000001000000000000000000000000004A
:1001B400000000000000000000000001000000003A
:1001C400000000000000000000000000000000002B
:1001D400000000000100000000000000000000001A
:1001E400000000000000000000000000000100000A
:1001F40000000000000000000000000000000000FB
:1002040000000000000001000000000000000000E9
:1002140000000000000000000000000000000001D9
:1002240000000000000000000000000000000000CA
:1002340001000000000000000000000000000000B9
:1002440000000000000000000001000000000000A9
:10025400000000000000000000000000000000009A
:100264000000010000000000000000000000000089
:100274000000000000000000000000010000000079
:10028400000000000000000000000000000000006A
:100294000000000001000000000000000000000059
:1002A4000000000000000000000000000001000049
:1002B400000000000000000000000000000000003A
:1002C4000000000000000100000000000000000029
:1002D4000000000000000000000000000000000119
:1002E400000000000000000000000000000000000A
:1002F40001000000000000000000000000000000F9
:1003040000000000000000000001000000000000E8
:1003140000000000000000000000000000000000D9
:1003240000000100000000000000000000000000C8
:1003340000000000000000000000000100000000B8
:1003440000000000000000000000000000000000A9
:100354000000000001000000000000000000000098
:100364000000000000000000000000000001000088
:100374000000000000000000000000000000000079
:100384000000000000000100000000000000000068
:100394000000000000000000000000000000000158
:1003A4000000000000000000000000000000000049
:1003B4000100000000000000000000000000000038
:1003C4000000000000000000000100000000000028
:1003D4000000000000000000000000000000000019
:1003E4000000010000000000000000000000000008
:1003F40000000000000000000000000100000000F8
:1004040000000000000000000000000000000000E8
:1004140000000000010000000000000000000000D7
:1004240000000000000000000000000000010000C7
:1004340000000000000000000000000000000000B8
:1004440000000000000001000000000000000000A7
:100454000000000000000000000000000000000197
:100464000000000000000000000000000000000088
:0804740053544152540A0000E8
:00000001FF
