:1000000012C02CC02BC02AC029C028C027C026C0BF
:1000100025C024C023C022C021C020C01FC01EC0D4
:100020001DC01CC01BC011241FBECFE5D4E0DEBF25
:10003000CDBF11E0A0E6B0E0E0EDFBE002C005902E
:100040000D92A433B107D9F722E0A4E3B1E001C0D7
:100050001D92A433B207E1F731D0B8C5D1CF10BC9F
:100060008CE089B98AB188618AB980B5866880BD1B
:1000700008955F9BFECF8CB108955D9BFECF8CB938
:100080000895CF93DF93EC018991882311F0F5DF78
:10009000FBCFDF91CF91089587B93E9A3D9886B105
:1000A000876086B9379A369A3699FECF24B185B1E2
:1000B00090E0982F8827820F911D089584B38F6157
:1000C00084BB7894CCDF60E271E084E591E0B8D243
:1000D00084E591E0D6DFAB9AAC98AA9AA99A3CE164
:1000E000C32E32E0D32EA4E0B2E0CCEED1E084ED1A
:1000F00091E02CEB31E044EA51E06CE871E004E778
:1001000011E0E8E1FE2EEE24E394F80111928F0154
:10011000FB011192BF01FA011192AF01F901E192C5
:100120009F01FC01E192CF0119921D92F6011192FB
:100130006F01FA9451F7912CC0E0D0E0E12CF12C42
:1001400097E2492E91E0592E24E5622E21E0722E8D
:1001500086E0A2DF8831910510F0E80EF91E2196A5
:10016000CB30D10508F4BFC0B70180E090E091D159
:100170006B017C01BE0180E090E08BD19B01AC0162
:10018000C701B601F2D013D258D1EB017F936F9320
:100190005F924F927F926F925AD284E591E071DF25
:1001A0000F900F900F900F900F900F90689708F49A
:1001B0006AC048E051E0ACE1AA2EA2E0BA2EB4E059
:1001C0002B2EB2E03B2EACEEB1E0C4EDD1E02CEB37
:1001D00031E064EA71E00CE811E084E7E82E81E0A8
:1001E000F82E80E090E0F1E09F16D9F09F1630F0F5
:1001F000F3E0DF2E9D102DC0912C2BC0F701108253
:10020000F8011082FC01E852FF4FD080FB01D08240
:10021000FA01C080F901C082C882DC92F10110822B
:1002200016C0F7011082FC01E054FF4F8080F801F6
:100230008082FC01E855FF4FD080FB01D082FA019B
:10024000C080F901C082C882DC92F1018082F50190
:1002500010820196FFEFEF1AFF0A0F5F1F4F6F5FCB
:100260007F4F4F5F5F4F2F5F3F4F21961196EFEF0C
:100270002E1A3E0AFFEFAF1ABF0A8831910509F026
:10028000B2CF93942CC04CE1C42E42E0D42EA4E013
:10029000B2E0CCEED1E084ED91E02CEB31E044EA29
:1002A00051E06CE871E004E711E0E8E1FE2EEE2495
:1002B000E394F80111928F01FB011192BF01FA0141
:1002C0001192AF01F901E1929F01FC01E192CF018E
:1002D00019921D92F60111926F01FA9451F7C0E044
:1002E000D0E0E12CF12C84E791E0A4E3B1E011E04F
:1002F000E4E3F1E0119221E0EC33F207D9F71D932A
:100300006CE371E020E030E0AC01420F531FFA01D2
:100310004081FB014193BF012F5F3F4F28313105E1
:1003200099F7AA98E4E5F1E02291213011F4A89818
:1003300001C0A89AA998A99A21E0EC33F207A1F785
:10034000ECE3F1E02291213011F4A89A01C0A898C1
:10035000A998A99A21E0E433F207A1F7AA9A48964E
:10036000E2E084339E0721F6F3CE0CD0E6C0DED067
:1003700040F0D5D030F021F45F3F19F0C7C05111E3
:1003800010C1CAC0EBD098F39923C9F35523B1F338
:10039000951B550BBB27AA2762177307840738F0F4
:1003A0009F5F5F4F220F331F441FAA1FA9F333D053
:1003B0000E2E3AF0E0E830D091505040E695001C07
:1003C000CAF729D0FE2F27D0660F771F881FBB1FC3
:1003D000261737074807AB07B0E809F0BB0B802D9D
:1003E000BF01FF2793585F4F2AF09E3F510568F0E9
:1003F0008DC0D7C05F3FECF3983EDCF386957795D0
:100400006795B795F7959F5FC9F7880F911D9695EA
:10041000879597F90895E1E0660F771F881FBB1F46
:10042000621773078407BA0720F0621B730B840BF3
:10043000BA0BEE1F88F7E095089598D088F09F5783
:1004400090F0B92F9927B751A0F0D1F0660F771F20
:10045000881F991F1AF0BA95C9F712C0B13081F000
:100460009FD0B1E008959CC0672F782F8827B85F90
:1004700039F0B93FCCF3869577956795B395D9F761
:100480003EF490958095709561957F4F8F4F9F4F6B
:100490000895E89409C097FB3EF490958095709577
:1004A00061957F4F8F4F9F4F9923A9F0F92F96E9C0
:1004B000BB279395F695879577956795B795F11135
:1004C000F8CFFAF4BB0F11F460FF1BC06F5F7F4FD2
:1004D0008F4F9F4F16C0882311F096E911C07723E4
:1004E00021F09EE8872F762F05C0662371F096E8ED
:1004F000862F70E060E02AF09A95660F771F881FBC
:10050000DAF7880F9695879597F9089597F99F6779
:1005100080E870E060E008959FEF80EC089500248B
:100520000A941616170618060906089500240A9458
:1005300012161306140605060895092E0394000CDE
:1005400011F4882352F0BB0F40F4BF2B11F460FF6D
:1005500004C06F5F7F4F8F4F9F4F089557FD905896
:10056000440F551F59F05F3F71F04795880F97FB77
:10057000991F61F09F3F79F0879508951216130631
:100580001406551FF2CF4695F1DF08C01616170660
:100590001806991FF1CF8695710561050894089595
:1005A000E894BB2766277727CB0197F90895DEDF0C
:1005B000E0F09E37D8F09639B8F49E3848F4672FAB
:1005C000782F8827985FF9CF8695779567959395CB
:1005D0009539D0F3B62FB1706B0F711D811D20F4CA
:1005E000879577956795939502C01CC0DACF8823CD
:1005F00071F4772321F09850872B762F07C066235C
:1006000011F499270DC09051862B70E060E02AF01C
:100610009A95660F771F881FDAF7880F969587954A
:1006200097F908959F3F31F0915020F48795779581
:100630006795B795880F911D9695879597F90895B9
:10064000FB01DC0101900D920020E1F70895AEE07E
:10065000B0E0ECE2F3E091C20D891E8986E08C8364
:100660001A8309838FEF9FE79E838D83AE01475ED8
:100670005F4F6F89788DCE01019608D0EF81F885A4
:10068000E00FF11F10822E96E4E093C2ACE0B0E0E0
:10069000EBE4F3E064C27C016B018A01FC01178288
:1006A0001682838181FFB0C1CE0101964C01F70112
:1006B0009381F60193FD859193FF81916F018823CA
:1006C00009F49EC1853239F493FD859193FF8191A0
:1006D0006F01853221F4B70190E0B1D1E8CF512C00
:1006E000312C20E02032A0F48B3269F030F48032DB
:1006F00059F0833269F420612CC08D3239F0803397
:1007000039F4216026C02260246023C0286021C003
:1007100027FD27C030ED380F3A3078F426FF06C0A9
:10072000FAE05F9E300D1124532E13C08AE0389EEC
:10073000300D1124332E20620CC08E3221F426FDA0
:100740005FC1206406C08C3611F4206802C0883670
:1007500041F4F60193FD859193FF81916F01811121
:10076000C1CF982F9F7D9554933028F40C5F1F4F75
:10077000FFE3F9830DC0833631F0833771F08335A1
:1007800009F057C021C0F801808189830E5F1F4F97
:1007900044244394512C540114C03801F2E06F0EEC
:1007A000711CF801A080B18026FF03C0652D70E0A8
:1007B00002C06FEF7FEFC5012C8736D12C0183017A
:1007C0002C852F77222E16C03801F2E06F0E711C97
:1007D000F801A080B18026FF03C0652D70E002C043
:1007E0006FEF7FEFC5012C8714D12C012C85206879
:1007F000222E830123FC19C0832D90E04816590650
:10080000A0F4B70180E290E01AD13A94F5CFF50157
:1008100027FC859127FE81915F01B70190E00FD100
:1008200031103A94F1E04F1A51084114510479F70C
:10083000DEC0843611F0893631F5F80127FF07C094
:1008400060817181828193810C5F1F4F08C060813C
:100850007181882777FD8095982F0E5F1F4F2F7627
:10086000B22E97FF09C090958095709561957F4F46
:100870008F4F9F4F2068B22E2AE030E0A40111D1A3
:10088000A82EA81843C0853729F42F7EB22E2AE05F
:1008900030E025C0F22FF97FBF2E8F36C1F018F45B
:1008A000883579F0ADC0803719F0883721F0A8C0BD
:1008B0002F2F2061B22EB4FE0DC08B2D8460B82E78
:1008C00009C024FF0AC09F2F9660B92E06C028E0F9
:1008D00030E005C020E130E002C020E132E0F80164
:1008E000B7FE07C060817181828193810C5F1F4FC9
:1008F00006C06081718180E090E00E5F1F4FA4010F
:10090000D0D0A82EA818FB2DFF77BF2EB6FE0BC0A7
:100910002B2D2E7FA51450F4B4FE0AC0B2FC08C0E3
:100920002B2D2E7E05C07A2C2B2D03C07A2C01C0D6
:10093000752C24FF0DC0FE01EA0DF11D808180336E
:1009400011F4297E09C022FF06C07394739404C079
:10095000822F867809F0739423FD12C020FF06C011
:100960005A2C731418F4530C5718732C731460F426
:10097000B70180E290E02C8762D073942C85F6CF8B
:10098000731410F4371801C0312C24FF11C0B701C3
:1009900080E390E02C8753D02C8522FF16C021FFE6
:1009A00003C088E590E002C088E790E0B7010CC082
:1009B000822F867851F021FD02C080E201C08BE2D7
:1009C00027FD8DE2B70190E03AD0A51430F4B701CD
:1009D00080E390E034D05A94F8CFAA94F401EA0D61
:1009E000F11D8081B70190E02AD0A110F6CF33200D
:1009F00009F45DCEB70180E290E021D03A94F7CFC0
:100A0000F7018681978102C08FEF9FEF2C96E2E17C
:100A1000C2C0FC010590615070400110D8F780956C
:100A200090958E0F9F1F0895FC01615070400190BA
:100A30000110D8F7809590958E0F9F1F08950F9302
:100A40001F93CF93DF93182F092FEB018B8181FD2B
:100A500003C08FEF9FEF20C082FF10C04E815F81E7
:100A60002C813D81421753077CF4E881F9819F0175
:100A70002F5F3F4F39832883108306C0E885F985AF
:100A8000812F0995892B29F72E813F812F5F3F4FB9
:100A90003F832E83812F902FDF91CF911F910F9154
:100AA0000895FA01AA27283051F1203181F1E89404
:100AB0006F936E7F6E5F7F4F8F4F9F4FAF4FB1E051
:100AC0003ED0B4E03CD0670F781F891F9A1FA11D4C
:100AD000680F791F8A1F911DA11D6A0F711D811D4D
:100AE000911DA11D20D009F468943F912AE0269F12
:100AF00011243019305D3193DEF6CF010895462F71
:100B00004770405D4193B3E00FD0C9F7F6CF462F51
:100B10004F70405D4A3318F0495D31FD40524193BA
:100B200002D0A9F7EACFB4E0A69597958795779577
:100B30006795BA95C9F700976105710508959B01FE
:100B4000AC010A2E06945795479537952795BA9587
:100B5000C9F7620F731F841F951FA01D08952F9260
:100B60003F924F925F926F927F928F929F92AF923D
:100B7000BF92CF92DF92EF92FF920F931F93CF938A
:100B8000DF93CDB7DEB7CA1BDB0B0FB6F894DEBF21
:100B90000FBECDBF09942A88398848885F846E8447
:100BA0007D848C849B84AA84B984C884DF80EE8091
:100BB000FD800C811B81AA81B981CE0FD11D0FB69A
:100BC000F894DEBF0FBECDBFED010895F894FFCFBE
:100BD0000000000001000000000000000000000014
:100BE0000000000100000000000000000001000003
:100BF00000000000000000000000010000000000F4
:100C000000000000000001010101010101010101DA
:100C100001010000000000000000000001000000D1
:100C200000000000000000000000000100000000C3
:100C300000000000000101010101010101010101A9
:100C4000010101000000000000000000010101019D
:100C50000101010101010101010101010000000088
:100C60000101000000000000000000000000000082
:100C7000000000000000010101010101000000006E
:100C80000000000000000000000000000101010160
:100C900053544152540A005349474E414C3A25752A
:040CA0000D0A000039
:00000001FF
