:1000000012C02CC02BC02AC029C028C027C026C0BF
:1000100025C024C023C022C021C020C01FC01EC0D4
:100020001DC01CC01BC011241FBECFE5D4E0DEBF25
:10003000CDBF11E0A0E6B0E0E2EEF2E102C0059033
:100040000D92A837B107D9F711E0A8E7B1E001C0D8
:100050001D92A839B107E1F72FD041C9D1CF10BC0B
:1000600083E089B986E880BD88E18AB908955F9BFD
:10007000FECF8CB108955D9BFECF8CB90895CF93D0
:10008000DF93EC0101C0F7DF89918823E1F7DF916D
:10009000CF91089587B93E9A3D9886B1876086B919
:1000A000379A369A3699FECF84B195B1392F20E030
:1000B000280F311DC90108956F927F928F929F92F0
:1000C000AF92BF92CF92DF92EF92FF920F931F9366
:1000D000CF93DF938B9A14BAC2DFC0E0D0E058E729
:1000E000852E51E0952E40E6642E40E0742E80E08F
:1000F000D1DF8C010F5F114017FF03C010950195F0
:100100001F4F81E0C7DF31E0E32E3EEFF32EE80E14
:10011000F91EF7FE04C0F094E194F108F39482E034
:10012000B9DF21E0C22E2EEFD22EC80ED91ED7FE87
:1001300004C0D094C194D108D394B701600F711F4B
:100140006C0D7D1D80E090E02CD320E030E040E499
:1001500050E404D2DAD540D05B012DB73EB72C5025
:1001600030400FB6F8943EBF0FBE2DBFEDB7FEB7BF
:100170003196ADB7BEB712969C928E92119773824C
:10018000628215830483F782E682D186C0867387F4
:1001900062879BD52DB73EB7245F3F4F0FB6F894CB
:1001A0003EBF0FBE2DBFC4016ADF32E3A316B10408
:1001B00050F4C333D1052CF0939A83E397E0019771
:1001C000F1F7219694CF2A971C161D060CF48FCFB9
:1001D0009398C0E0D0E08BCFEF92FF920F931F93E4
:1001E0007B018C0120E030E040E05FE460D287FDDD
:1001F0000FC0C801B70120E030E040E05FE483D1E8
:1002000081D29B01AC01205030404040504805C095
:10021000C801B70177D29B01AC01B901CA011F9196
:100220000F91FF90EF900895A0E0B0E0E9E1F1E0D8
:1002300019C5FC01EA018081823008F438C1DB0174
:100240009C91923008F430C1843059F4943009F014
:100250002EC1918111968C911197981709F021C1A7
:1002600026C1943009F420C19230B1F4823009F0F3
:100270001EC1CA01AF0128E0DA010D90AD01DC0119
:100280000D92CD012150C1F7DB0111968C91119790
:100290009181892389830AC1823009F405C1C28012
:1002A000D380DB0112966D907C9013972481358169
:1002B000468157811496ED90FD900D911C911797F2
:1002C000C601861997095C0197FF04C0AA24BB24C4
:1002D000A81AB90AB0E2AB16B1040CF061C0181646
:1002E00019066CF5370148010A2C04C096948794CE
:1002F000779467940A94D2F781E090E0A0E0B0E0B0
:100300000A2C04C0880F991FAA1FBB1F0A94D2F79A
:100310000197A109B1098E219F21A023B123EE24C9
:10032000FF248701E3940097A105B10519F4EE2499
:10033000FF248701E628F728082919293CC00097DF
:10034000D1F1CA0CDB1C39014A010A2C04C0969475
:100350008794779467940A94D2F781E090E0A0E0C4
:10036000B0E00A2C04C0880F991FAA1FBB1F0A9473
:10037000D2F70197A109B10982239323A423B523BE
:1003800021E030E040E050E00097A105B10519F40C
:1003900020E030E0A90126293729482959290BC036
:1003A0006C147D0424F4EE24FF24870104C063014F
:1003B00020E030E0A9018181FB019181891709F4D6
:1003C00045C0882349F0D801C701821B930BA40BB9
:1003D000B50B9C01AD0104C02E193F09400B510B18
:1003E00057FD04C01982DB82CA820BC081E0898379
:1003F000DB82CA8250954095309521953F4F4F4FF3
:100400005F4F2C833D834E835F830DC0880F991F00
:10041000AA1FBB1F8C839D83AE83BF838A819B8170
:1004200001979B838A838C819D81AE81BF819C01D2
:10043000AD0121503040404050402F3FEFEF3E078C
:10044000EFEF4E07EFE35E0708F30BC08983DB8213
:10045000CA822E0D3F1D401F511F2C833D834E83AA
:100460005F8383E088832C813D814E815F8157FFCC
:100470001DC0DA01C90181709070A070B0705695EE
:10048000479537952795822B932BA42BB52B8C83DF
:100490009D83AE83BF838A819B8101969B838A83E0
:1004A00005C0E0E7F0E003C0FB0101C0FE01CF01A1
:1004B000CDB7DEB7EEE0F2C3A0E2B0E0E1E6F2E0F5
:1004C000D9C369837A838B839C832D833E834F8337
:1004D000588789E0E82EF12CEC0EFD1ECE01019626
:1004E000B701FAD28E010F5E1F4FCE010596B801FB
:1004F000F3D2C701B801AE01475E5F4F95DE1FD250
:10050000A096E6E0D3C3A0E2B0E0E8E8F2E0B2C330
:1005100069837A838B839C832D833E834F835887A3
:100520008E01075F1F4FCE010196B801D5D291E130
:10053000E92EF12CEC0EFD1ECE010596B701CCD2B2
:100540008A8991E089278A8BC801B701AE01475E8D
:100550005F4F6ADEF4D1A096E6E0A8C3A8E1B0E060
:10056000E3EBF2E083C369837A838B839C832D83DF
:100570003E834F8358878E01075F1F4FCE01019640
:10058000B801AAD281E1E82EF12CEC0EFD1ECE01BD
:100590000596B701A1D29985923008F483C0898964
:1005A000823008F47BC02A853A8923272A87943031
:1005B00011F0923021F4981709F06CC071C08430AA
:1005C00039F41D861E861F86188A1C861B866AC003
:1005D000823019F484E0898765C08B859C852B89DE
:1005E0003C89821B930B9C878B872D853E854F858D
:1005F0005889ED88FE880F89188D2E153F05400714
:10060000510738F4220F331F441F551F01979C8751
:100610008B876FE170E0A12CB12CC12CA0E4DA2E05
:1006200080E090E0DC012E153F054007510740F0C7
:100630008A299B29AC29BD292E193F09400B510B52
:10064000D694C794B794A794220F331F441F551F05
:100650006150704041F76FE7E62EF12C012D112D0E
:10066000E822F9220A231B2360E4E616F1040105BF
:10067000110561F487FD0AC02115310541055105B9
:1006800029F0805C9F4FAF4FBF4F80788D879E874A
:10069000AF87B88B8E01075F1F4F04C0870102C070
:1006A00000E710E0C8014BD16896EAE0FBC2A8E180
:1006B000B0E0ECE5F3E0DEC269837A838B839C8350
:1006C0002D833E834F8358878E01075F1F4FCE01D6
:1006D0000196B80101D281E1E82EF12CEC0EFD1E4D
:1006E000CE010596B701F8D18985823038F0898925
:1006F000823020F0C801B70158D201C08FEF689650
:10070000E6E0D4C2ACE0B0E0E7E8F3E0B7C269836A
:100710007A838B839C83CE010196BE016B5F7F4FF2
:10072000DBD18D81823081F1823070F1843021F40F
:100730008E81882369F10AC02F81388537FD24C056
:100740006E812F3131053CF0662311F120E030E05D
:1007500040E050E821C08EE190E0821B930B298598
:100760003A854B855C8504C0569547953795279506
:100770008A95D2F7662381F0509540953095219562
:100780003F4F4F4F5F4F08C020E030E0A90104C049
:100790002FEF3FEF4FEF5FE7B901CA012C96E2E080
:1007A00089C2A8E0B0E0E6EDF3E062C27B018C0113
:1007B0001A82611571058105910519F482E089831A
:1007C0005EC083E089838EE1C82ED12CDC82CB828F
:1007D000ED82FE820F831887C801B70156D0FC0155
:1007E0003197F7FF3AC0AA27BB27AE1BBF0B21E00A
:1007F00030E040E050E00A2E04C0220F331F441FB7
:10080000551F0A94D2F721503040404050402E21CD
:100810003F214023512361E070E080E090E021150A
:1008200031054105510519F460E070E0CB0104C0C9
:1008300016950795F794E794AA95D2F7E62AF72A32
:10084000082B192BED82FE820F8318878EE190E032
:100850008E1B9F0B9C838B8312C0309781F00E2ED2
:1008600004C0EE0CFF1C001F111F0A94D2F7ED828A
:10087000FE820F831887CE1ADF0ADC82CB82CE017C
:1008800001965DD02896E8E00FC2AF92BF92CF925A
:10089000DF92EF92FF920F931F937B018C0180E018
:1008A000E81680E0F80681E0080780E0180758F4B1
:1008B000EFEFEE16F1040105110509F090F480E068
:1008C00090E0DC0117C0F0E0EF16F0E0FF06F0E08A
:1008D0000F07F1E01F0750F480E190E0A0E0B0E0E6
:1008E00009C088E090E0A0E0B0E004C088E190E0BA
:1008F000A0E0B0E020E230E040E050E0281B390BFF
:100900004A0B5B0B5701680104C0D694C794B79497
:10091000A7948A95D2F7D601C50188589F4FFC014C
:100920008081281B310941095109C9011F910F918B
:10093000FF90EF90DF90CF90BF90AF900895EF922F
:10094000FF920F931F93CF93DF93FC012481358196
:100950004681578161818081823020F44061EFEFD0
:10096000F0E0A3C0843009F49BC0823009F492C047
:10097000211531054105510509F48FC00280F3812D
:10098000E02D8FEFE238F8070CF05AC0C2E8DFEF35
:10099000CE1BDF0BCA31D1056CF579018A010C2E13
:1009A00004C016950795F794E7940A94D2F781E06E
:1009B00090E0A0E0B0E00C2E04C0880F991FAA1FA1
:1009C000BB1F0A94D2F70197A109B109822393238F
:1009D000A423B52321E030E040E050E00097A105DA
:1009E000B10519F420E030E0A9012E293F29402B60
:1009F000512B03C020E030E0A901DA01C9018F7753
:100A00009070A070B07080349105A105B10539F4E3
:100A100027FF09C0205C3F4F4F4F5F4F04C0215C50
:100A20003F4F4F4F5F4FE1E0F0E0203080E038076C
:100A300080E0480780E4580728F5E0E0F0E022C0B5
:100A4000E038F1056CF5E158FF4FDA01C9018F7705
:100A50009070A070B07080349105A105B10539F493
:100A600027FF09C0205C3F4F4F4F5F4F04C0215C00
:100A70003F4F4F4F5F4F57FF05C0569547953795EE
:100A80002795319687E056954795379527958A950E
:100A9000D1F70BC0E0E0F0E005C0E0E0F0E005C019
:100AA000EFEFF0E020E030E0A9018E2F8795882756
:100AB0008795942F9F77679566276795E695E22E31
:100AC000A92FA82BFE2FF62B622F732F8A2F9F2F73
:100AD000CDB7DEB7E6E0EAC0DC01FB012C91119650
:100AE0003C91119712968C911297482F4F7750E0B6
:100AF000982F991F9927991F13966C911397862FFA
:100B0000880F892B90E0661F6627661F6183009718
:100B100039F5211531054105510511F482E029C04F
:100B200082E89FEF9383828367E0220F331F441F85
:100B3000551F6A95D1F783E0808309C0220F331FC8
:100B4000441F551F828193810197938382832030B4
:100B500080E0380780E0480780E4580778F320C039
:100B60008F3F910579F4211531054105510519F49F
:100B700084E08083089544FF03C081E0808310C037
:100B800010820EC08F5790409383828383E08083CE
:100B900087E0220F331F441F551F8A95D1F75064F9
:100BA00024833583468357830895FC01DB019081BC
:100BB000923008F449C08C91823008F445C09430DA
:100BC00051F461818430B1F511962C91119730E088
:100BD000261B310941C0843021F0923041F482302B
:100BE000B1F111968C9111978823A1F12DC06181EB
:100BF000823001F111968C9111976817D9F42281F6
:100C0000338112968D919C9113978217930794F0DC
:100C100028173907BCF02481358146815781149605
:100C20008D919D910D90BC91A02D82179307A407E3
:100C3000B50718F4662341F00DC0281739074A0795
:100C40005B0728F4662331F021E030E005C020E0A6
:100C500030E002C02FEF3FEFC90108952F923F927D
:100C60004F925F926F927F928F929F92AF92BF92BC
:100C7000CF92DF92EF92FF920F931F93CF93DF9368
:100C8000CDB7DEB7CA1BDB0B0FB6F894DEBF0FBEC5
:100C9000CDBF09942A88398848885F846E847D8412
:100CA0008C849B84AA84B984C884DF80EE80FD8014
:100CB0000C811B81AA81B981CE0FD11D0FB6F8948A
:100CC000DEBF0FBECDBFED010895AEE0B0E0EAE6B5
:100CD000F6E0D2CF0D891E8986E08C831A830983C2
:100CE0008FEF9FE79E838D839E01275E3F4FCE014E
:100CF00001966F89788DA90128D0EF81F885E00FE2
:100D0000F11F10822E96E4E0D3CFC8D2E0F09E37D8
:100D1000D8F09639B8F49E3848F4672F782F882792
:100D2000985FF9CF86957795679593959539D0F328
:100D3000B62FB1706B0F711D811D20F487957795CB
:100D4000679593957AC294C2C4C2ACE0B0E0EAEA77
:100D5000F6E084CF6C011B018A01FC011782168228
:100D6000838181FFC4C12E010894411C511CF601EE
:100D70009381F10193FD859193FF81911F01882358
:100D800009F4B1C1853239F493FD859193FF8191C6
:100D90001F01853221F490E0B601C5D1E8CFEE24E1
:100DA000FF2420E02032B0F48B3269F08C3228F43A
:100DB000803251F0833271F40BC08D3239F08033C0
:100DC00049F421602CC02260246029C0286027C01B
:100DD000206125C027FD2CC0382F30533A3098F4BD
:100DE00026FF08C08E2D880FE82EEE0CEE0CE80EC4
:100DF000E30E15C08F2D880FF82EFF0CFF0CF80E98
:100E0000F30E20620CC08E3221F426FD6CC12064EA
:100E100006C08C3611F4206802C0883649F4F1010E
:100E200093FD859193FF81911F01882309F0BACF2B
:100E3000982F9554933018F09052933028F40C5F0B
:100E40001F4FFFE3F9830DC0833631F0833771F014
:100E5000833509F05CC021C0F801808189830E5F71
:100E60001F4F420171E0A72EB12C15C062E0662E23
:100E7000712C600E711EF8018080918026FF03C0E6
:100E80006E2D70E002C06FEF7FEFC4012C8740D160
:100E90005C0183012C852F7716C052E0652E712CE2
:100EA000600E711EF8018080918026FF03C06E2DB8
:100EB00070E002C06FEF7FEFC4012C871ED15C0190
:100EC0002C852068830123FD1EC007C080E290E0CE
:100ED000B6012C8728D1FA942C858F2D90E0A81686
:100EE000B906A0F310C0F40127FD859127FF819179
:100EF0004F0190E0B6012C8716D12C85F110FA94A1
:100F00000894A108B108A114B10469F7E9C08436B6
:100F100011F0893641F527FF08C0F8016081718121
:100F2000828193810C5F1F4F09C0F801608171813C
:100F3000882777FD8095982F0E5F1F4F4FE6B42EC0
:100F4000B22297FF09C090958095709561957F4F6B
:100F50008F4F9F4FF0E8BF2AA2012AE030E00FD167
:100F6000782E741844C0853731F43FEEB32EB22288
:100F70002AE030E025C099EFB92EB2228F36C1F0B9
:100F8000803720F4883509F0AEC00DC0803721F0DD
:100F9000883709F0A8C002C020E1B22AB4FE0BC015
:100FA00084E0B82A08C0B4FE09C0E6E0BE2A06C044
:100FB00028E030E005C020E130E002C020E132E06E
:100FC000B7FE08C0F80160817181828193810C5F56
:100FD0001F4F07C0F8016081718180E090E00E5FD3
:100FE0001F4FA201CCD0782E7418FFE7BF22B6FEA7
:100FF0000BC02EEFB2227E1438F4B4FE07C0B2FC50
:1010000005C08FEEB82202C0A72C01C0AE2C8B2DDC
:1010100090E0B4FE0DC0FE01E70DF11D20812033EC
:1010200019F4E9EEBE2209C0A394B2FE06C004C0C2
:1010300086789070009709F0A3948B2C9924B3FCC8
:1010400013C0B0FE0EC0AF1428F4E72CEF0CEA1862
:10105000AF2C07C0E72C05C080E290E0B60163D05A
:10106000A394AF14C8F304C0AF1410F4FA1801C06D
:10107000FF2484FE0EC080E390E0B60154D082FECF
:101080001DC081FE03C088E590E010C088E790E0B5
:101090000DC0C40186789070009781F081FC02C079
:1010A00080E201C08BE2B7FC8DE290E0B6013BD05C
:1010B00005C080E390E0B60136D0EA947E14C8F310
:1010C0007A94F201E70DF11D808190E0B6012BD0FA
:1010D0007720B1F705C080E290E0B60124D0FA9401
:1010E000FF20C9F744CEF6012681378102C02FEFD9
:1010F0003FEFC9012C96E2E1CDCDFC010590615096
:1011000070400110D8F7809590958E0F9F1F08951D
:10111000FC016150704001900110D8F780959095C6
:101120008E0F9F1F08950F931F93CF93DF938C0112
:10113000EB018B8181FF1BC082FF0DC02E813F819F
:101140008C819D812817390764F4E881F981019326
:10115000F983E88306C0E885F985802F0995009713
:1011600031F48E819F8101969F838E8302C00FEFA1
:101170001FEFC801DF91CF911F910F910895FA01E0
:10118000AA27283051F1203181F1E8946F936E7FC6
:101190006E5F7F4F8F4F9F4FAF4FB1E03ED0B4E0B7
:1011A0003CD0670F781F891F9A1FA11D680F791FF8
:1011B0008A1F911DA11D6A0F711D811D911DA11D09
:1011C00020D009F468943F912AE0269F1124301919
:1011D000305D3193DEF6CF010895462F4770405DB4
:1011E0004193B3E00FD0C9F7F6CF462F4F70405D63
:1011F0004A3318F0495D31FD4052419302D0A9F7BE
:10120000EACFB4E0A6959795879577956795BA95B7
:10121000C9F700976105710508959B01AC010A2E7D
:1012200006945795479537952795BA95C9F7620F54
:10123000731F841F951FA01D0895882371F47723C1
:1012400021F09850872B762F07C0662311F4992739
:101250000DC09051862B70E060E02AF09A95660FE1
:10126000771F881FDAF7880F9695879597F9089565
:101270009F3F31F0915020F4879577956795B7950A
:10128000880F911D9695879597F9089557FD905869
:10129000440F551F59F05F3F71F04795880F97FB3A
:1012A000991F61F09F3F79F08795089512161306F4
:1012B0001406551FF2CF4695F1DF08C01616170623
:1012C0001806991FF1CF8695710561050894089558
:1012D000E894BB2766277727CB0197F90895F89400
:0212E000FFCF3E
:1012E20025752C2025752C2025752C2025750A00A6
:1012F20000000000000000000001020203030303DB
:101302000404040404040404050505050505050593
:101312000505050505050505060606060606060673
:10132200060606060606060606060606060606065B
:101332000606060606060606070707070707070743
:10134200070707070707070707070707070707072B
:10135200070707070707070707070707070707071B
:10136200070707070707070707070707070707070B
:1013720007070707070707070808080808080808F3
:1013820008080808080808080808080808080808DB
:1013920008080808080808080808080808080808CB
:1013A20008080808080808080808080808080808BB
:1013B20008080808080808080808080808080808AB
:1013C200080808080808080808080808080808089B
:1013D200080808080808080808080808080808088B
:1013E200080808080808080808080808080808087B
:0813F2000808080808080808B3
:00000001FF
